:020000040800F2
:10000000481B0020690B000825030008270300088F
:100010002B0300082F030008330300080000000032
:10002000000000000000000000000000370300088E
:100030003903000800000000873D0008E5080008BB
:10004000830B0008830B0008830B0008830B000858
:10005000830B0008830B0008830B0008830B000848
:10006000830B0008830B0008830B0008830B000838
:10007000830B0008830B0008830B0008830B000828
:10008000830B0008830B0008830B0008830B000818
:10009000830B0008830B0008830B0008830B000808
:1000A000830B0008830B0008830B0008830B0008F8
:1000B000830B0008830B0008830B0008830B0008E8
:1000C000830B0008830B0008830B0008830B0008D8
:1000D000830B0008CB0A000853060008830B0008B6
:1000E000830B0008830B0008830B0008830B0008B8
:1000F000830B0008830B0008830B0008830B0008A8
:10010000830B0008830B0008830B0008830B000897
:10011000830B0008830B0008830B0008830B000887
:10012000830B0008830B0008830B0008830B000877
:1001300000F002F800F069F80AA090E8000C824490
:100140008344AAF10107DA4501D100F05EF8AFF26D
:10015000090EBAE80F0013F0010F18BFFB1A43F0A5
:100160000103184740510000605100000A444FF05D
:10017000000C10F8013B13F0070408BF10F8014B06
:100180001D1108BF10F8015B641E05D010F8016B4B
:10019000641E01F8016BF9D113F0080F1EBF10F8AF
:1001A000014BAD1C0C1B09D16D1E58BF01F801CBD2
:1001B000FAD505E014F8016B01F8016B6D1EF9D555
:1001C0009142D6D37047000000230024002500266A
:1001D000103A28BF78C1FBD8520728BF30C148BFAA
:1001E0000B607047662904F09187002070471FB5A7
:1001F00004F080FF04F0B4F804000020002104F0B3
:1002000011FEE0601FBD10B510BD04F0C5F9114628
:10021000FFF7EDFF00F054F804F0E3F903B4FFF743
:10022000F2FF03BC00F0ECFB1CB534A103C9CDE91F
:1002300000014FF0000428E032A003F0D9FD202196
:10024000344800F04DFE012000F0ADFB4FF00004FB
:100250000EE01DF80410304801F06CF800BF80215A
:100260002D4801F0DDF80028F9D004F10100C4B2F6
:10027000082CEED3022000F096FB2021254800F048
:1002800031FE4FF47A7000F08EFBD5E770B504466E
:100290004FF0000500BF01F0C4FD03F04DFD054621
:1002A0004FF00F031D4A4FF00001AFF2830003F03F
:1002B00066F80A2003F011FB284603F041FD70BDEB
:1002C00010B500F01BFB4FF4A06000F06DFC4FF484
:1002D000E13000F0A2FB4FF4165000F03DF900F0C1
:1002E0001DF901F058FC0A230D4A0021AFF263000A
:1002F00003F045F801F07DFD002010BD390300003A
:10030000000700B0B6C1C8A1CAFDBEDDB7A2CBCD03
:10031000210D0A0000100140004400407C0500202F
:100320007C040020704700BFFEE700BFFEE700BF6F
:10033000FEE700BFFEE77047704700004FF0000186
:1003400008466D4A126842F480326B4B1A6000BF57
:10035000694A126802F4003001F1010110B9B1F5E7
:10036000A06FF5D1644A126812F4003F02D04FF03A
:10037000010001E04FF00000012842D15F4A1268FD
:1003800042F010025D4B1A601A46126822F0030216
:100390001A601A46126842F002021A60564A5268FF
:1003A000554B5A601A4652685A601A46526842F4CF
:1003B00080625A601A46526822F47C125A601A46C9
:1003C000526842F4E8125A601A46126842F080728B
:1003D0001A6000BF484A126812F0007FFAD0464AFD
:1003E000526822F00302444B5A601A46526842F0A7
:1003F00002025A6000BF404A526802F00C02082A0A
:10040000F9D1704710B5FFF799FF10BD10B53A4804
:10041000006840F0010038490860084640683849E3
:1004200000EA01003449486008460068354900EA9E
:100430000100314908600846006820F48020086007
:100440000846406820F4FE0048604FF41F008860B2
:10045000FFF7D8FF4FF000602B49086010BD10B5C2
:100460004FF0000108460246234B5B6803F00C0185
:1004700021B1042906D008292CD107E0234B244CB4
:1004800023602BE0214B224C236027E01A4B5B6852
:1004900003F47010184B5B6803F480324FF00203D2
:1004A00003EB90402AB91B4B00FB03F3184C23606D
:1004B0000FE0114B5B6813F4003F05D0154B00FBB8
:1004C00003F3134C236004E0104B00FB03F3104CC8
:1004D000236003E00D4B0E4C236000BF00BF064BB2
:1004E0005B68C3F303130C4CE15C094B1B6823FAF4
:1004F00001F3074C236010BD0010024000200240B1
:100500000000FFF8FFFFF6FE08ED00E000127A00A1
:100510000000002000093D000400002008B5012172
:10052000082001F07FF94FF48070ADF800004FF023
:1005300010008DF803004FF003008DF802006946AB
:10054000044800F011FC4FF48071024800F0C8FC30
:1005500008BD0000000C014010B586B004464FF005
:1005600001014FF0150001F05DF90121480401F08F
:1005700068F94FF00400ADF814004FF003008DF857
:1005800016004FF018008DF8170005A9A34800F0D9
:10059000EBFB4FF00800ADF814004FF004008DF8AD
:1005A000170005A99D4800F0DFFB4FF00200ADF8F1
:1005B000140005A99A4800F0D7FB4FF02000ADF8D1
:1005C00014004FF010008DF8170005A9944800F0B2
:1005D000CBFB4FF00100ADF8140005A9904800F0E6
:1005E000C3FB4FF026008DF800004FF003008DF89C
:1005F00001008DF802004FF001008DF803006846FD
:1006000000F0D8FA01944FF00000ADF80800ADF802
:100610000A00ADF80C00ADF810004FF00C00ADF87A
:100620000E0001A97F4800F058FD012240F225513B
:100630007C4800F009FE01217A4800F0F8FD4021D5
:10064000784800F008FF2021774800F04BFC06B006
:1006500010BD2DE9FF5F01F0B4FA0821714800F0E8
:10066000DFFE002839D008216E4800F0F4FE6F4804
:10067000006880B96B4800F061FEC4B2392C09D122
:100680006B486A49096844546848006800F10100F1
:100690006649086021E065480068012810D161487A
:1006A00000F04CFEC4B2032C09D161485F490968CF
:1006B00044545E48006800F101005C4908600CE0A9
:1006C000584800F03BFE5A49584A12688854574827
:1006D000006800F101005549086040F22551514879
:1006E00000F0C3FE00283AD040F225514D4800F0FA
:1006F000F0FE4E48006880B94A4800F01FFEC4B2C0
:10070000392C09D14A484949096844544748006886
:1007100000F101004549086021E0444800680128D3
:1007200010D1404800F00AFEC4B2032C09D1404861
:100730003E49096844543D48006800F101003B49C6
:1007400008600CE0374800F0F9FD3949374A126873
:1007500088543648006800F1010034490860334885
:100760000068132855D11321314800F07FF8012883
:100770004FD12F49097B2E4AD27A41EA02222C49D5
:10078000497A42EA01212A4A927A41EA020004F0B7
:1007900053FC8346274904F08DFB824604F05EFB40
:1007A00004460D462249097A214AD27941EA0220BB
:1007B00004F042FC8346204904F07CFB824604F0AE
:1007C0004DFB06460F461A4989790A0618494979A8
:1007D00042EA01421649C97842EA0121144A1279D3
:1007E00041EA020004F028FC8346144904F062FB4D
:1007F000824604F033FB804642460B4610A0CDE90A
:100800000067CDE9024503F0F3FA4FF00000074915
:10081000086001F0F2F9BDE8FF9F00000008014008
:100820000010014000440040000C01401400002072
:100830008005002000007A440000C84200002041EA
:10084000B5E7C4DC3A252E32664B572A48A3ACB52F
:10085000E7D1B9A3BA252E326656A3ACB5E7C1F7E6
:10086000A3BA252E3366410D0A0000002DE9F041A0
:1008700002460B464FF0FF042546A3F1020000F0AC
:10088000FF0C09E012F8010B80EA04010C48405CFF
:1008900080EA05040B48455C5FEA0C00ACF10108F6
:1008A00008F0FF0CEED112F8016B12F8017BBD428B
:1008B00004D1B44202D10120BDE8F0810020FBE761
:1008C000180000201801002010B501F0D2F910BD69
:1008D00010B501F063FA10BD10B50446204603F0D0
:1008E000D5F810BD10B540480078012805D101F0B9
:1008F00068F901F0B9FA01F080F910BD10B56FF098
:10090000040000F0AEF9394800683949B0FBF1F055
:1009100038490870354800683549B0FBF1F441F2B8
:10092000883004FB00F44FF00500334908804FF095
:10093000E020006940F002004FF0E0210861084625
:100940004461006940F00100086110BD2DE9F047E5
:1009500007464FF000064FF0E020D0F814902548ED
:10096000007807FB00F800BFFFF7AEFF4FF0E02074
:10097000856912E04FF0E0208469AC420DD0AC42B2
:1009800003D2A5EB0400064403E0A9EB04002844CD
:1009900006442546464500D300E0EBE700BFFFF7DD
:1009A00097FFBDE8F08770B504460F480078A0B106
:1009B0001248007888B910480088844206DB0E4847
:1009C000008894FBF0F52846FFF786FF0A48008868
:1009D00094FBF0F100FB114084B24FF47A7104FBF8
:1009E00001F0FFF7B3FF70BD5E02002000000020A1
:1009F00000127A00180200201A0200205102002082
:100A0000014600BF704700BF524A128812F0400FE3
:100A1000FAD0C2B2504B1A80704710B586B0044667
:100A20004FF0010144F2040000F0FCFE494800F0E0
:100A300011FB4FF40070ADF814004FF003008DF877
:100A400016004FF018008DF8170005A9434800F074
:100A50008BF94FF48060ADF814004FF004008DF86E
:100A6000170005A93D4800F07FF94FF025008DF8EB
:100A700000004FF003008DF801008DF802004FF0E8
:100A800001008DF80300684600F094F801944FF0DF
:100A90000000ADF80800ADF80A00ADF80C00ADF8A4
:100AA00010004FF00C00ADF80E0001A9294800F02D
:100AB00014FB012240F22551264800F0C5FB01211C
:100AC000244800F0B4FB06B010BD10B501F079F871
:100AD00040F225511F4800F0C8FC18B31D4800F033
:100AE0002DFCC4B21E48008810F4004F2ED11C48C3
:100AF000008810F4804F0DD00A2C04D04FF0000075
:100B00001749088022E01648008840F40040144944
:100B100008801BE00D2C06D11148008840F480406D
:100B20000F49088012E00E480088C0F30D000D49FF
:100B30000C540B48008800F1010009490880084660
:100B40000088C72802DD4FF00000088001F055F84A
:100B500010BD000000380140043801400008014089
:100B60001C0200209D0500200948804709480047D5
:100B7000FEE7FEE7FEE7FEE7FEE7FEE7FEE7FEE74D
:100B8000FEE7FEE704480549054A064B70470000AA
:100B90000D0400083101000848110020481B002006
:100BA0004813002048130020384940EA0101384A20
:100BB0001160704770B54FF000010B464FF00F0207
:100BC000C4784CB3324C246804F4E064C4F5E064A7
:100BD0004FEA1421C1F1040322FA01F2447804FA25
:100BE00003F1847804EA020444EA01014FEA0111A6
:100BF000284C0678A155047804F01F054FF0010435
:100C000004FA05F405784FEA65154FF0E02606EB87
:100C10008505C5F800410CE0047804F01F054FF08D
:100C2000010404FA05F41C4D06784FEA661645F8EF
:100C3000264070BD194A01EA020242EA0002184B3E
:100C40001A60704731B1174A126842EA0002154B28
:100C50001A6005E0134A126822EA0002114B1A607A
:100C60007047042808D14FF0E021096941F00401E0
:100C70004FF0E022116107E04FF0E021096921F017
:100C800004014FF0E0221161704700000000FA05F6
:100C90000CED00E000E400E080E100E080FFFF1FD9
:100CA00008ED00E010ED00E010B50446DE48844297
:100CB00008D10121042000F0D3FD0021042000F020
:100CC000CFFD46E0D948844208D10121082000F038
:100CD000C7FD0021082000F0C3FD3AE0D44884425B
:100CE00008D10121102000F0BBFD0021102000F0F0
:100CF000B7FD2EE0CF48844208D10121202000F02A
:100D0000AFFD0021202000F0ABFD22E0CA48844264
:100D100008D10121402000F0A3FD0021402000F077
:100D20009FFD16E0C548844208D10121802000F0D3
:100D300097FD0021802000F093FD0AE0C048844226
:100D400007D10121801500F08BFD0021A01500F0D6
:100D500087FD10BD10B50121084600F081FD00217E
:100D6000012000F07DFD10BD2DE9F04102464FF05D
:100D700000052E46284603460446074691F803C060
:100D80000CF00F0591F803C01CF0100F03D091F880
:100D900002C04CEA0505B1F800C01CF0FF0F35D0C9
:100DA00014684FF000002EE04FF0010C0CFA00F335
:100DB000B1F800C00CEA03069E4222D14FEA80033C
:100DC0004FF00F0C0CFA03F724EA070405FA03FCB2
:100DD0004CEA040491F803C0BCF1280F06D14FF08F
:100DE000010C0CFA00FCC2F814C00AE091F803C030
:100DF000BCF1480F05D14FF0010C0CFA00FCC2F811
:100E000010C000F101000828CED31460B1F800C072
:100E1000BCF1FF0F38DD54684FF0000031E000F105
:100E2000080C4FF0010808FA0CF3B1F800C00CEA06
:100E300003069E4223D14FEA80034FF00F0C0CFAB9
:100E400003F724EA070405FA03FC4CEA040491F8CA
:100E500003C0BCF1280F05D100F1080C08FA0CF80A
:100E6000C2F8148091F803C0BCF1480F07D100F11B
:100E7000080C4FF0010808FA0CF8C2F8108000F1D5
:100E800001000828CBD35460BDE8F0814FF6FF7114
:100E900001804FF0020181704FF00401C170704772
:100EA00002464FF0000093680B4202D04FF0010061
:100EB00001E04FF0000070470146886880B270473B
:100EC00002464FF00000D3680B4202D04FF0010001
:100ED00001E04FF0000070470146C86880B27047DB
:100EE00001617047416170470AB1016100E04161F1
:100EF0007047C16070474FF4803242EA010282615C
:100F00008161826182698269704702464FF0000008
:100F10004C4B18684FF6807300EA030040EA021059
:100F200040EA0100474B186070474749C861704765
:100F3000F0B50A464FF000031C4619460D4600F076
:100F40000046B6F1004F02D13E4EF16901E03D4E40
:100F50007168C0F3034583B200F44016B6F5401F34
:100F600008D121F07061374E766826F07066354FF3
:100F70007E6017E000F48016B6F5801F08D14FF0B0
:100F8000030606FA05F421EA040141F0706109E064
:100F90004FEA50564FEA061603FA06F621EA060112
:100FA00041F070613AB14FEA50564FEA061603FA23
:100FB00006F646EA010100F00046B6F1004F02D104
:100FC000204EF16101E01F4E7160F0BD30B54FF071
:100FD00000024FEA81734FEA13744FF00F0303FAD4
:100FE00004F21A4B4FEAA10453F8243023EA020317
:100FF000164C4FEAA10544F8253023464FEAA104D8
:1010000053F824304FEA81744FEA147400FA04F460
:1010100043EA04030D4C4FEAA10544F8253030BDE6
:101020000B4908607047000000080140000C0140B7
:10103000001001400014014000180140001C014054
:101040000020014000000140000020420800014053
:10105000DC00204210B50446F848844209D1012141
:10106000880300F0FDFB00214FF4804000F0F8FB06
:1010700032E0F348844209D10121480400F0FFFB2B
:1010800000214FF4003000F0FAFB25E0ED488442E7
:1010900009D10121880400F0F2FB00214FF48020E7
:1010A00000F0EDFB18E0E848844209D10121C804B2
:1010B00000F0E5FB00214FF4002000F0E0FB0BE026
:1010C000E248844208D10121080500F0D8FB002144
:1010D0004FF4801000F0D3FB10BD2DE9F04786B02F
:1010E00005460E464FF00004A24600BFA146274623
:1010F000B08900B100BF2F462C8A4CF6FF7004EA7D
:101100000004F08840EA04042C82AC894EF6F31007
:1011100004EA0004B088318940EA0100718940EA9C
:10112000010040EA0404AC81AC8A4FF6FF4004EAB7
:101130000004B08940EA0404AC8201A800F0F7FA88
:10114000BE48874202D1DDF810A001E0DDF80CA016
:10115000A88910F4004F09D00AEBCA0000EB0A106E
:1011600031684FEA4101B0FBF1F808E00AEBCA0030
:1011700000EB0A1031684FEA8101B0FBF1F84FF043
:101180006400B8FBF0F04FEA00144FEA14104FF07F
:10119000640101FB1089A88910F4004F0AD04FF0B8
:1011A000320000EBC900B0FBF1F000F0070040EAAC
:1011B00004040BE04FF0320000EB09104FF0640123
:1011C000B0FBF1F000F00F0040EA04042C8106B0FF
:1011D000BDE8F0874FF4165101604FF000018180A7
:1011E000C18001814FF00C0141814FF000018181EC
:1011F000704710B502464FF00000108A4FF2FF030F
:1012000000EA03000B884C8843EA04038C8843EA15
:101210000403CC8843EA040343EA0000108210BDB3
:101220004FF00001018041808180C180704721B171
:10123000828942F40052828105E082894DF6FF7373
:1012400002EA030282817047F0B503464FF00004C2
:10125000264625462046A1F510676A3F00D100BF0B
:101260001846C1F3421401F01F064FF0010707FAB8
:1012700006F5012C02D100F10C0006E0022C02D18F
:1012800000F1100001E000F1140022B1076847EA04
:101290000507076003E0076827EA05070760F0BD58
:1012A00010B522B1838A43EA0103838206E0838A70
:1012B0006FEA0104A4B203EA0403838210BD028A28
:1012C0004FF6F07302EA03020282028A42EA010246
:1012D0000282704782894FF2FF7302EA0302828121
:1012E000828942EA01028281704721B1828942F0FB
:1012F0000202828105E082894FF6FD7302EA030251
:1013000082817047028A4FF6DF7302EA030202828B
:10131000028A42EA01020282704721B1028A42F443
:101320008042028205E0028A4BF6FF7302EA030262
:1013300002827047C1F308028280704701468888A4
:10134000C0F308007047818941F001018181704735
:10135000028BD2B20283028B42EA012202837047DF
:10136000028B02F47F420283028B42EA0102028373
:10137000704721B1828A42F02002828205E0828A8F
:101380004FF6DF7302EA03028282704721B1828A3C
:1013900042F01002828205E0828A4FF6EF7302EA81
:1013A00003028282704721B1828A42F0080282825F
:1013B00005E0828A4FF6F77302EA030282827047E1
:1013C00021B1828942F40042828103E08289C2F322
:1013D0000E028281704721B1828A42F400628282C9
:1013E00005E0828A4FF2FF7302EA030282827047AD
:1013F000828A4FF6FB7302EA03028282828A42EA01
:1014000001028282704721B1828A42F00202828206
:1014100005E0828A4FF6FD7302EA0302828270477A
:1014200002464FF00000B1F5007F00D100BF1388E5
:101430000B420DD04FF001000CE0000000380140DD
:101440000044004000480040004C00400050004074
:101450004FF00000704701F40072B2F5007F00D138
:1014600000BF6FEA01020280704770B502464FF07C
:10147000000423461D461846A1F510666A3E00D1B9
:1014800000BFC1F3421501F01F034FF0010606FA39
:1014900003F3012D03D1968906EA030308E0022D28
:1014A00003D1168A06EA030302E0968A06EA0303DA
:1014B0004FEA21244FF0010606FA04F4168806EAE2
:1014C00004041BB114B14FF0010001E04FF0000023
:1014D00070BD10B54FF000021346A1F510646A3CD0
:1014E00000D100BF4FEA21224FF0010404FA02F4B8
:1014F000A3B26FEA0304048010BD0000F74800683F
:1015000040F00100F549086008464068F44900EAE7
:101510000100F249486008460068F24900EA01000B
:10152000EE4908600846006820F4802008600846FC
:10153000406820F4FE0048604FF41F008860704748
:10154000E649096821F48031E44A116011460968CE
:1015500021F480211160B0F5803F03D0B0F5802FD9
:101560000ED106E0DD49096841F48031DB4A1160A3
:1015700007E0DA49096841F4A021D84A116000E087
:1015800000BF00BF704710B501464FF00002134680
:1015900010464FEA6112012A02D1D04C236806E0BE
:1015A000022A02D1CD4C236A01E0CC4C636A01F0DF
:1015B0001F024FF0010404FA02F41C4202D04FF063
:1015C000010001E04FF0000010BD70B54FF00004C5
:1015D0002546264600BF3120FFF7D5FF064604F119
:1015E0000104B4F5A06F01D0002EF4D03120FFF734
:1015F000CAFF10B14FF0010501E04FF00005284689
:1016000070BD01464FF00000B44A106820F0F800A9
:1016100040EAC10010607047B34908607047024655
:101620004FF00000AD4B586820F47C1042EA0103F3
:1016300043EA0000A94B58607047AB490866704701
:1016400001464FF00000A54A506820F0030040EA30
:10165000010050607047A148406800F00C007047DE
:1016600001464FF000009D4A506820F0F00040EA2B
:1016700001005060704701464FF00000974A5068E3
:1016800020F4E06040EA01005060704701464FF0EE
:101690000000924A506820F4605040EAC100506057
:1016A000704731B18D4A527A42EA00028B4B5A722E
:1016B00008E08A4A527A6FEA0003DBB202EA0302C8
:1016C000864B5A72704789490860704701464FF04F
:1016D0000000824A506820F4404040EA0100506017
:1016E00070474FF00001824A11707C4A82F8201046
:1016F000012802D004280AD104E04FF001017C4AFD
:10170000117005E04FF00501794A117000E000BF4B
:1017100000BF70477749086070477049096A41EA1D
:1017200000016E4A1162704773490860704730B516
:101730004FF000010A460C460B46684D6D6805F0F7
:101740000C0121B1042905D0082927D105E06B4DF2
:10175000056026E0694D056023E0604D6D6805F485
:1017600070125E4D6D6805F480344FF0020505EB94
:10177000924224B9624D02FB05F505600DE0574D1C
:101780006D6815F4003F04D05D4D02FB05F5056062
:1017900003E05A4D02FB05F5056002E0574D056078
:1017A00000BF00BF4D4D6D6805F0F0014FEA11110B
:1017B000544D6B5C056825FA03F54560474D6D682F
:1017C00005F4E0614FEA11214E4D6B5C456825FA46
:1017D00003F58560414D6D6805F460514FEAD121F4
:1017E000484D6B5C456825FA03F5C5603B4D6D6857
:1017F00005F440414FEA9131434D6B5CC568B5FB40
:10180000F3F5056130BD31B1344A526942EA000254
:10181000324B5A6105E0314A526922EA00022F4BED
:101820005A61704731B12D4A926942EA00022B4B4E
:101830009A6105E0294A926922EA0002274B9A61DF
:10184000704731B1254AD26942EA0002234BDA617E
:1018500005E0224AD26922EA0002204BDA61704791
:1018600031B11E4AD26842EA00021C4BDA6005E040
:101870001A4AD26822EA0002184BDA60704731B186
:10188000164A126942EA0002144B1A6105E0134A33
:10189000126922EA0002114B1A6170471B49086065
:1018A00070471149C86470470C49C87170470B48AC
:1018B000406A40F0807009494862704701464FF025
:1018C0000000064A92680A4202D04FF0010001E08F
:1018D0004FF00000704701498872704700100240C5
:1018E0000000FFF8FFFFF6FE00004242D80042422F
:1018F00020100240800442423C04424200127A001E
:1019000000093D002402002034020020400442422D
:101910007CB54FF0000515E06946284601F096FFBA
:10192000064666B9F84850F8254044B1012C06D067
:10193000D4E9020100EB810060640198A06405F124
:101940000100C5B23F2DE7D97CBD4FF0000400BFB8
:1019500002E0282002F09AF8EC4800780028F8D03D
:10196000EB4800684FF06401B0FBF1F0E849086013
:101970000846006838B94FF00000E64908704FF09B
:10198000FF0001F0AAFF00BF02F0D6F90446E248CA
:101990000068E24908604FF00000DF490860204617
:1019A00002F0CEF9DD480068D9490968B0FBF1F0D2
:1019B000C0F16400D749087002F05BF9FFF7A8FF97
:1019C000142002F063F8DFE700B587B003200021A0
:1019D0008022D34BCDE90132CDE903104FF6FE70E2
:1019E0003E23D04A0090AFF29D0001F025FD06AAEB
:1019F000CDA13E2001F0A4FE07B000BD4FF00004D1
:101A000000BF00BF02F098F90446C348006800F127
:101A10000100C1490860204602F092F902F028F95D
:101A2000F0E700B587B0032000218022C24BCDE94A
:101A30000132CDE903104FF6FF703F23BF4A0090FB
:101A4000AFF2470001F0F8FC06AABDA13F2001F06B
:101A500077FE07B000BD06E04FF0000200F8012B52
:101A6000A1F1010291B20029F6D1704770B5C821E9
:101A7000B748FFF7F0FF4FF0000312E003F1010059
:101A800085B203EB8300B24901EB800405EB8500CE
:101A900001EB80064FF000002070666003F101004A
:101AA00083B2092BEAD303EB8300A94901EB80043D
:101AB0004FF00000207060600846A649086070BDC5
:101AC00070B54FF47C71A448FFF7C5FF4FF48071E7
:101AD0008D48FFF7C0FF4FF0000415E004F101004E
:101AE000C5B2C4EBC40000EB40009B4901EB80038E
:101AF000C5EBC50000EB400001EB80065E6197A0DE
:101B0000D86404F10100C4B20B2CE7D3C4EBC400C9
:101B100000EB4000904901EB80034FF0000058615A
:101B20008EA0D8644FF000008D4908608A488D4926
:101B3000086070BD4FF000018B4A1170084606E046
:101B40004FF00001894A115400F10101C8B2082880
:101B5000F6D34FF00001864A1170864A1170864A0A
:101B60001160864A116070474FF000008449086098
:101B70008449087084490870844908708449087051
:101B800084490860644908606449086060490860E5
:101B90005E490870704710B502F066F8FFF7E4FF81
:101BA000FFF7C8FFFFF78CFFFFF760FF00F0D2FFE1
:101BB00001F007FBFFF735FFFFF706FF02F055F8CE
:101BC00010BD73480078012809D16E480078FF28BD
:101BD00005D26C48007800F101006A49087070472E
:101BE0006D49614A1278885C6049095C6A4A515CB7
:101BF00001EBC0015F4A1170704710B54FF000044F
:101C000063480078012833D102F096F804465D4815
:101C1000007828B15B480078A0F1010059490870AC
:101C20005848007808BB58480078F0B9FFF7D8FF4B
:101C300035485049097850F821004F4908604D480F
:101C400000784B49097888420FD04B480068806B78
:101C500000F101004849096888634E48006800F1B6
:101C600001004C49086002F086F8204602F068F84E
:101C700010BD10B54FF0000445480078012812D17E
:101C800002F05AF804463F48007848B93E480078C8
:101C9000FF2805D23C48007800F101003A4908705D
:101CA000204602F04DF810BD10B54FF0000402F0D0
:101CB00043F804463348007808BB33480078F0B94D
:101CC000FFF78EFF10482B49097850F821002A4968
:101CD0000860284800782649097888420FD02648AD
:101CE0000068806B00F10100234909688863294876
:101CF000006800F101002749086002F035F820462D
:101D000002F01EF810BD0000800B002050020020E1
:101D10004802002044020020600200204C02002003
:101D2000800700207C09002075432F4F532D49491F
:101D30002053746174000000800900207C0B002097
:101D400075432F4F532D49492049646C65000000AD
:101D5000680600203C020020800C00203F000000AC
:101D60007002002068020020550200205602002068
:101D700053020020540200206C0200206402002064
:101D80007C02002051020020520200205F0200204D
:101D90005E020020380200201051000810B54FF0FC
:101DA0000004FE480078012822D101F0C5FF044656
:101DB000FB480078C8B1FA480078A0F10100F84962
:101DC00008700846007860B9F648007828B92046BF
:101DD00001F0B6FFFFF768FF0AE0204601F0B0FF10
:101DE00006E0204601F0ACFF02E0204601F0A8FF2B
:101DF00010BD10B5E948007890B9FFF7F1FEEA4848
:101E00000078EA490870EA48E749097850F8210063
:101E1000E849086008460068E749086001F093FF58
:101E200010BD10B54FF000044FF0020001F02EFE7F
:101E300001F082FF04464FF00000E04908602046B0
:101E400001F07EFF142001F021FE01F075FF044631
:101E5000DA480068DA4908604FF00100D949087093
:101E6000204601F06DFF10BD70B54FF0000601F087
:101E700060FF01F061FF0646D348006800F10100F1
:101E8000D1490860304601F05BFFC4480078012862
:101E90005FD1CE48007820B1012805D002280CD1AE
:101EA00005E04FF001050FE04FF000050CE04FF0AA
:101EB00001052846C549087006E04FF001054FF0BE
:101EC0000000C249087000BF00BF05B970BDC0481E
:101ED00004683AE001F030FF0646E06A88B3E06A41
:101EE000A0F10100E062E06A58BB94F8300010F005
:101EF000370F0AD014F8300F00F0C80020704FF0F0
:101F000001006070A4F1300403E04FF0000084F899
:101F1000310094F8300010F0080F12D104F13404AD
:101F2000A078AC49097840EA0100AA4908702078F5
:101F3000A949085C617840EA010014F83419A64AFE
:101F400050546469304601F0FBFE94F832003F289B
:101F5000C0D100BFBAE740F223107047704710B5F8
:101F600090F8342001F10B039B5C90F835406FEA48
:101F70000404E4B203EA040301F10B04A35423466E
:101F80009B5C43B98B7A90F836406FEA0404E4B264
:101F900003EA04038B7210BD2DE9F04F05460F468E
:101FA00090469946A87A8D490E5C05F10B00805D3C
:101FB00011F800B00BEBC60000F0FF0A7C4850F8A7
:101FC0002A404FF0000004F12004E0602760207CEC
:101FD0006FEA0801C9B200EA0100207484F8119088
:101FE000207CA4F1200410F0080F0FD194F83600E3
:101FF0007849097840EA0100764908707648805DA2
:1020000094F8351040EA0100734988552946204666
:10201000FFF7A5FF5046BDE8F08F10B5664A12687D
:10202000D061654A126892F8343000F10B02D25C3C
:10203000614B1B6893F8353042EA03025E4B1B6824
:1020400093F8344000F10B031A55827A5A4B1B68FF
:1020500093F8363042EA03028272574A126892F8C5
:1020600034105D4A525C544B1B6893F835306FEA6C
:102070000303DBB202EA0302574B5A541A46525C7E
:1020800062B94D4A126892F836206FEA0202D2B263
:10209000504B1B7802EA03024E4B1A7010BD0146EA
:1020A0004FF000028A72104607E04FF0000301F182
:1020B0000B02135400F10102D0B20828F5D3704787
:1020C00006E011F8013B00F8013BA2F101039AB2CE
:1020D000002AF6D1704701464FF0000004E001F1FC
:1020E000010100F10102D0B20A78002AF7D170474D
:1020F0002DE9F84F05460F4690469946DDE90AABB3
:102100004FF00000009001F017FE00903448046882
:10211000002C42D004F1180454F8040C3049086033
:10212000009801F00DFE44F8187CA5764FF00000F1
:1021300020766076606144F814BC44F80CAC44F836
:10214000108C0C9824F8080C24F8069C4FF0000022
:10215000E0774FEAE500207705F00700E076217F81
:102160004FF0010000FA01F0A077E17E4FF001008E
:1021700000FA01F060774FF000006060E060A0605E
:102180002062A0626062E0622063AFF23040606370
:10219000A4F118044FF000062DE067E05E02002075
:1021A000520200205102002054020020530200205D
:1021B000800B00206C0200206402002060020020DE
:1021C00048020020500200207C02002074020020FF
:1021D0007002002055020020560200201051000815
:1021E000680200204FF0000104F1500040F8261072
:1021F00006F10100C6B2002EF4D0204601F098FD91
:10220000204601F033FD01F097FD00901A4840F898
:1022100025401A48006860614FF00000A06117482F
:10222000006810B11548006884611448046004F126
:102230003404A0781249097840EA01001049087076
:1022400020781049085C617840EA010014F83419DC
:102250000C4A50540C48007800F101000A490870FB
:10226000009801F06DFD0020BDE8F88F009801F0A6
:1022700067FD4220F8E70000800B0020700200207C
:1022800055020020560200205F0200202DE9F05F79
:1022900004460F4691461E464FF0000B2078052855
:1022A00006D04FF0010030704FF00000BDE8F09F05
:1022B00009F0800ABAF1000F04D029F080094FF02C
:1022C000010801E04FF000084FF00000307001F00D
:1022D00033FD8346B9F1000F36D0B9F1010F4AD072
:1022E000B9F1020F03D0B9F1030F5AD116E02089DA
:1022F00000EA0705BD420AD1B8F1010F0AD12089D1
:102300006FEA050189B200EA0100208102E04FF086
:1023100070003070584601F013FD4BE0208900EA50
:10232000070555B1B8F1010F0AD120896FEA0501FF
:1023300089B200EA0100208102E04FF070003070A5
:10234000584601F0FDFC35E020896FEA000080B2BC
:1023500000EA0705BD4207D1B8F1010F07D1208976
:1023600040EA0500208102E04FF0700030705846CE
:1023700001F0E6FC1EE020896FEA000080B200EA6E
:1023800007053DB1B8F1010F07D1208940EA0500EA
:10239000208102E04FF070003070584601F0D0FC10
:1023A00008E0584601F0CCFC4FF000054FF06F00FC
:1023B000307000BF00BF284678E72DE9F04106469F
:1023C0000D464FF00007F848007830B14FF010008C
:1023D00028704FF00000BDE8F08101F0ADFC074629
:1023E000F24804689CB100684068F04908604FF00A
:1023F0000500207026814FF000006060ECA0E060D6
:10240000384601F09DFC4FF00000287005E038468A
:1024100001F096FC4FF0720028702046DBE730B5E3
:1024200001464A68086832B9CC68606030B14FF044
:102430000005456002E0106000B142608B684FF01B
:1024400000055D6230BDF0B506460F46B4684FF03A
:10245000000004F1280460602780207A00F0DF008B
:1024600020724FF000006072207AA4F12804A8B90D
:1024700004F13404A078CF49097840EA0100CD493D
:1024800008702078CC49085C617840EA010014F8B3
:102490003419C94A50544FF0010501E04FF00005CE
:1024A0003046FFF7BCFF2846F0BD2DE9F047044653
:1024B000894615464FF0000ABB48007828B14FF016
:1024C0000F0028702046BDE8F0872078052804D04A
:1024D0004FF0010028702046F5E701F02DFC824600
:1024E000606810B14FF0010701E04FF00007B9F14B
:1024F000000F03D0B9F1010F43D11DE0A7B9ACA083
:10250000E0604FF000002070A848006860604FF065
:1025100000002081A5480460504601F011FC4FF0F6
:1025200000002870064606E0504601F009FC4FF016
:102530004900287026462CE0D4F8048005E00021EC
:102540004046FFF780FFD8F80080B8F1000FF6D1C1
:1025500097A0E0604FF00000207094480068606031
:102560004FF00000208191480460504601F0E8FBE4
:10257000012F01D1FFF798FB4FF0000028700646AD
:1025800007E0504601F0DCFB4FF0070028702646BC
:1025900000BF00BF304696E72DE9F04105460E46E4
:1025A00014464FF000078048007830B14FF011001A
:1025B00020704FF00000BDE8F08101F0BDFB074640
:1025C0002878052808D0384601F0BAFB4FF0010002
:1025D00020704FF00000EEE7E86830603068FFF7E9
:1025E0007AFD8046384601F0ABFB4FF000002070CA
:1025F0004046E0E72DE9F04105460E4614464FF00F
:1026000000076948007820B14FF012002070BDE843
:10261000F08101F091FB07462878052806D038465E
:1026200001F08EFB4FF001002070F0E7EE603846BD
:1026300001F086FB4FF00000207000BFE7E7F0B527
:102640001446059E5D4F3F6897F8307047F02007AD
:10265000DFF868C1DCF800C08CF830704FF000077C
:10266000DFF858C1DCF800C08CF83170534F3F6878
:10267000FE62524F3F6879620C828B744F4F3F6805
:102680008F6047680F604FF000074F60C860456873
:1026900005B169604160494F3F6897F83420464F63
:1026A000BF5CDFF818C1DCF800C09CF835C06FEAE9
:1026B0000C0C0CF0FF0C07EA0C07DFF8FCC00CF860
:1026C00002706746BF5C87B93C4F3F6897F8367029
:1026D0006FEA0707FFB2DFF8DCC09CF800C007EA2A
:1026E0000C07DFF8D0C08CF80070F0BD2DE9F04F7A
:1026F00089B005460F4691469A46129E4FF000005B
:1027000002902948007838B14FF0020030704FF045
:10271000000009B0BDE8F08F2948007828B14FF0DB
:102720000D0030704FF00000F3E72878052805D041
:102730004FF0010030704FF00000EAE709F0800B25
:10274000BBF1000F04D009F07F094FF0010801E050
:102750004FF0000801F0F0FA0290B9F1000F62D0DA
:10276000B9F1010F79D0B9F1020F03D0B9F1030F1C
:1027700074D133E0288900EA0704BC4222D1B8F1C1
:10278000010F06D128896FEA040189B200EA01002D
:1027900028810A4800680485029801F0D1FA4FF0B8
:1027A000000030702046B4E75102002040020020B3
:1027B0003F00000055020020560200206402002065
:1027C000520200204B463A4604A92846CDF800A004
:1027D000FFF735FF029801F0B3FA7BE0288900EAA1
:1027E0000704A4B1B8F1010F06D128896FEA0401EA
:1027F00089B200EA01002881EC480068048502984B
:1028000001F09EFA4FF000003070204681E74B4601
:102810003A4604A92846CDF800A0FFF710FF029819
:1028200001F08EFA56E028896FEA000080B200EAD3
:102830000704BC4213D1B8F1010F03D1288940EA43
:1028400004002881D94800680485029801F078FACC
:102850004FF00000307020465BE70CE030E04B4664
:102860003A4604A92846CDF800A0FFF7E8FE0298F2
:1028700001F066FA2EE028896FEA000080B200EAD3
:1028800007048CB1B8F1010F03D1288940EA040094
:102890002881C64800680485029801F051FA4FF07B
:1028A00000003070204634E74B463A4604A92846DB
:1028B000CDF800A0FFF7C3FE029801F041FA09E04D
:1028C000029801F03DFA4FF000044FF06F003070B5
:1028D00020461EE700BFFFF7E7F901F02DFA02904E
:1028E000B248006890F8310048B3B048006890F8EA
:1028F000310003904FF00000AC49096881F83100C5
:1029000004A8FFF78CFD4FF00000A849096881F882
:102910003000029801F014FA4FF0000403980128E7
:1029200006D0022803D14FF00E00307004E000BF43
:102930004FF00A00307000BF00BF2046E9E69B4818
:102940000068048DB8F1010F25D1B9F1000F12D044
:10295000B9F1010F10D0B9F1020F03D0B9F1030F93
:102960000FD100E000BF28896FEA040189B200EAB4
:10297000010028810EE000BF288940EA0400288178
:1029800008E0029801F0DCF94FF06F0030704FF072
:102990000000BEE600BF029801F0D2F94FF000003F
:1029A00030702046B5E670B54FF0000501F0C4F96F
:1029B00005467E480068048D284601F0C1F920468E
:1029C00070BD2DE9FC5F0446894692461E464FF0D5
:1029D000000000902078052806D04FF001003070EC
:1029E0004FF00000BDE8FC9F01F0A6F90090BAF19D
:1029F000000F03D0BAF1010F0DD107E020896FEA73
:102A0000090189B200EA010020810DE0208940EA35
:102A10000900208108E0009801F092F94FF0710060
:102A200030704FF00000DDE700BF4FF0000B65682D
:102A30005DE0A87C40B301283BD0022802D00328E7
:102A40004AD111E02089298A00EA0107288AB84280
:102A500009D139462846FFF7F6FC8046B8F1010F48
:102A600001D14FF0010B40E02089298A00EA0107DB
:102A70004FB139462846FFF7E6FC8046B8F1010F12
:102A800001D14FF0010B30E020896FEA000080B2E5
:102A9000298A00EA0107288AB84209D1394628461E
:102AA000FFF7D1FC8046B8F1010F01D14FF0010BC7
:102AB0001BE020896FEA000080B2298A00EA010742
:102AC0004FB139462846FFF7BEFC8046B8F1010FEA
:102AD00001D14FF0010B08E0009801F031F94FF0FF
:102AE0006F0030704FF000007CE700BF2D68002DB4
:102AF0009FD1009801F024F9BBF1010F01D1FFF73C
:102B0000D3F801F019F9009020890190009801F0A4
:102B100017F94FF000003070019863E72DE9F0419C
:102B200004460D464FF000072078052806D04FF0E8
:102B3000010028704FF00000BDE8F08101F0FCF8C2
:102B400007462689384601F0FBF84FF00000287050
:102B50003046F1E72DE9F04150211548FEF77BFFA3
:102B60004FF0000511E005F1010086B2104800EBBE
:102B7000051400EB06174FF0000020706760AFF2FD
:102B8000D030E06005F1010085B2042DEBD3084898
:102B900000EB05144FF0000020706060AFF2F030E1
:102BA000E060034803490860BDE8F081640200204A
:102BB00030070020400200202DE9F04106460D4676
:102BC0004FF000083078022806D04FF0010028703E
:102BD0004FF00000BDE8F08101F0AEF88046746867
:102BE000E08A90B1216901F1040020610F68E08A58
:102BF000A0F10100E082A1682069884201D16068EB
:102C000020614FF00000287004E04FF01F00287092
:102C10004FF00007404601F093F83846DAE72DE917
:102C2000F04106460F464FF00008F948007810B111
:102C30000020BDE8F08101F07FF88046F548056886
:102C4000006820B1F34800684068F24908604046D7
:102C500001F076F805B301F06FF88046EE4804689D
:102C6000DCB100680068EC490860404601F068F893
:102C7000666006EB8700A060E6602661A7824FF0E1
:102C80000000E0824FF0020028704FF00000288121
:102C90006C602846FFF703FA09E0DE4800686860C8
:102CA000DC480560404601F04BF84FF0000528462F
:102CB000BFE72DE9F0470446894615464FF0000A64
:102CC0002078022805D04FF0010028702046BDE88A
:102CD000F087CF48007820B14FF00F0028702046D1
:102CE000F5E701F029F88246A07A10B14FF001080B
:102CF00001E04FF00008B9F1000F03D0B9F1010F66
:102D00004CD123E0B8F1000F18D16668C2480068C2
:102D10003060C14806604FF000002070BD48006878
:102D200060604FF000002081BA480460504601F016
:102D300007F84FF000002870074606E0504600F004
:102D4000FFFF4FF04900287027462FE005E00023E1
:102D5000042219462046FFF71FF9A07A0028F6D171
:102D60006668AD4800683060AB4806604FF0000010
:102D70002070A848006860604FF000002081A548DE
:102D80000460504600F0DCFFB8F1010F01D1FEF7FE
:102D90008BFF4FF000002870074607E0504600F018
:102DA000CFFF4FF007002870274600BF00BF38460E
:102DB0008DE770B505464FF0000600F0BDFF0646F2
:102DC0006C686068E060606820614FF00000E0823D
:102DD000304600F0B5FF002070BD2DE9F0470746F2
:102DE000884615464FF000093878022806D04FF083
:102DF000010028704FF00000BDE8F087844800789B
:102E000028B14FF0020028704FF00000F4E783482B
:102E1000007828B14FF00D0028704FF00000EBE76C
:102E200000F08AFF81467C68E08AB0B1216901F137
:102E3000040020610E68E08AA0F10100E082A16830
:102E40002069884201D160682061484600F078FF1F
:102E50004FF0000028703046CEE77148006890F8C7
:102E6000300040F004006E49096881F830004FF0EE
:102E700000006B49096881F8310069480068C0F8B2
:102E80002C803846FFF7C9F8484600F059FFFEF796
:102E90000BFF00F051FF81466148006890F8310057
:102EA00020B1012810D002280DD106E05C4800684E
:102EB000066A4FF00000287011E04FF000064FF056
:102EC0000E0028700BE000BF394655480068FFF738
:102ED00046F84FF000064FF00A00287000BF00BF10
:102EE0004FF000004E49096881F830004C490968EC
:102EF00081F831004A490968C8614949096808628E
:102F0000484600F01DFF304676E72DE9F0410446C3
:102F10000F4615464FF000082078022806D04FF0E3
:102F2000010028704FF00000BDE8F08100F004FFC0
:102F30008046A07A40B34FF0000687B1012F0DD133
:102F400008E00223042200212046FFF725F806F1BD
:102F50000100C6B2A07A0028F3D10AE000BF022324
:102F6000042200212046FFF717F806F10100C6B23F
:102F700000BF00BF404600F0E3FEFEF795FE4FF0B5
:102F80000E0028703046CFE7404600F0D9FE4FF0E3
:102F90000000287000BFC7E72DE9F04105460E4646
:102FA0004FF000072878022802D00120BDE8F08108
:102FB00000F0C2FE0746A87A60B100230422314621
:102FC0002846FEF7E9FF384600F0BAFEFEF76CFE31
:102FD0000020EBE76C68E08AA18A884204DB38466F
:102FE00000F0AEFE1E20E1E7E16801F10400E060C0
:102FF0000E60E08A00F10100E082D4E9021088420C
:1030000001D16068E060384600F09AFE0020CDE70C
:10301000510200203C0200207802002052020020D1
:10302000640200202DE9F04105460E464FF00007EE
:103030002878022802D00120BDE8F08100F07CFE53
:103040000746A87A60B10023042231462846FEF7DD
:10305000A3FF384600F074FEFEF726FE0020EBE7E3
:103060006C68E08AA18A884204DB384600F068FE7A
:103070001E20E1E761682069884201D1A0682061D3
:103080002069A0F10400206120690660E08A00F157
:103090000100E082384600F053FE0020CCE72DE925
:1030A000F04105460F4616464FF0000828780228E2
:1030B00002D00120BDE8F08100F03EFE8046A87AF3
:1030C000E8B116F0010F0AD005E0002304223946CA
:1030D0002846FEF761FFA87A0028F6D105E0002314
:1030E000042239462846FEF757FF404600F028FEE6
:1030F00016F0040F01D1FEF7D7FD0020DAE76C6867
:10310000E08AA18A884204DB404600F019FE1E20B6
:10311000D0E716F0020F0CD061682069884201D117
:10312000A06820612069A0F1040020612069076087
:103130000AE0E16801F10400E0600F60D4E90210E8
:10314000884201D16068E060E08A00F10100E0821D
:10315000404600F0F5FD0020ACE72DE9F0470546BC
:103160000C464FF0000A2878022802D00120BDE862
:10317000F08700F0E1FD8246A87A207405F10B0883
:1031800004F108094FF0000706E018F8010B09F8F0
:10319000010B07F10100C7B2082FF6D36E68F08A61
:1031A00018B130690068206002E04FF00000206034
:1031B000F08AA080B08AE080504600F0C1FD002077
:1031C000D5E72DE9F04178211248FEF744FC4FF095
:1031D00000040FE004F1010086B204EB44000D4945
:1031E00001EBC00506EB460001EBC0072F6004F1C0
:1031F000010084B2042CEDD304EB4400054901EB3B
:10320000C0054FF000002860084603490860BDE88B
:10321000F081000070100020780200202DE9FF5F8F
:10322000814688464FF00000009000F085FD009038
:10323000FE4850F8280030B1009800F081FD2820A9
:1032400004B0BDE8F09FB9F1FF0F03D1F848006862
:1032500090F83290F54850F8294024B9009800F0D1
:103260006FFD2920ECE7012C04D1009800F068FDE7
:103270004320E5E74FEAE80708F0070003904FF026
:10328000010000FA07F000F0FF0A4FF00101039877
:1032900001FA00F101F0FF0B4FF00000E34941F8A3
:1032A0002900084640F8284014F8346FA0780290AE
:1032B0006078A4F134040190DE48815D01980142F8
:1032C00022D0DC48805D01996FEA0101C9B200EAB1
:1032D0000100D84988550846805D48B9D64800782D
:1032E00002996FEA0101C9B200EA0100D2490870EF
:1032F000D148007840EA0A00CF490870CD48C05D47
:1033000040EA0B00CB49C855E56915B305F10B0040
:10331000805D01996FEA0101C9B200EA010005F17F
:103320000B0188550846805D38B9A87A02996FEA82
:103330000101C9B200EA0100A872A87A40EA0A00B5
:10334000A87205F10B00C05D40EA0B0005F10B010E
:10335000C85584F8328084F83470039884F83300B8
:1033600084F836A084F835B0009800F0E9FCB34842
:103370000078012801D1FEF797FC002060E72DE9D5
:10338000FE4F06460F4690461C464FF0000900F0DF
:10339000D3FC8146AA48007828B1484600F0D0FC0A
:1033A0003C20BDE8FE8FA14850F8240078BB4FF0C8
:1033B00001009E4941F82400484600F0C1FC00236A
:1033C00042463946304600F055FC82464FF0000038
:1033D0000090019003460246514602902046FEF7B7
:1033E00087FE054635B99548007801280DD1FEF7CE
:1033F0005BFC0AE000F0A0FC81464FF000008B4926
:1034000041F82400484600F09BFC2846C9E7FFE746
:10341000484600F095FC2820C3E712F0010F0AD0BF
:1034200012F0020F07D004E0A1F101014FF00003F8
:1034300008C00029F8D170472DE9F04F85B08146CA
:103440008A4693461C46DDE90F78129D4FF0000036
:10345000039000F071FC03907948007830B1039834
:1034600000F06EFC3C2005B0BDE8F08F6F4850F8CE
:10347000240098BB4FF001006C4941F824000398E8
:1034800000F05EFC2A4641463846FFF7C6FF2B4651
:103490005A465146484600F0EDFB04901198CDE99C
:1034A000008002953A4620460E9B0499FEF720FEC6
:1034B000064636B96148007801280DD1FEF7F4FBC5
:1034C0000AE000F039FC03904FF00000574941F842
:1034D0002400039800F034FC3046C4E7FFE703986B
:1034E00000F02EFC2820BEE72DE9F04105464FF004
:1034F00000075348007810B14020BDE8F0813F2D0F
:1035000001D13E20F9E700F017FC0746FF2D03D15B
:103510004748006890F83250444850F8254024B994
:10352000384600F00DFC4320E7E7012C04D1384673
:1035300000F006FC3D20E0E714F8340F3D49085C3C
:1035400061786FEA0101C9B200EA01002178394AC5
:10355000505414F834091146085C50B994F83600F8
:103560006FEA0000C0B23449097800EA010032492C
:103570000870E06918B12046E169FEF7F0FC666A60
:1035800016B13046FEF74BFF4FF00000E06284F8C2
:10359000300084F831002B480078FF2805D22948F4
:1035A000007800F1010027490870384600F0C8FB98
:1035B000FEF7D4FC00F0C0FB07462248007828B193
:1035C00020480078A0F101001E490870204600F054
:1035D0004EFB1D480078A0F101001B4908704FF018
:1035E0000000124941F82500A06938B94FF00000E9
:1035F0006169886115496069086005E0D4E90501E1
:103600004861D4E90510886111480068606110487C
:10361000046010A0E064384600F092FB0748007890
:10362000012801D1FEF740FB002066E7800B002057
:103630006402002056020020550200205E02002095
:1036400051020020520200205F0200207002002080
:10365000680200203F0000002DE9F04104464FF0D1
:1036600000073F2C02D13E20BDE8F081FF2C0BD19A
:1036700000F062FB0746F948006890F8376038466A
:1036800000F05EFB3046EFE700F056FB0746F448DB
:1036900050F8245025B9384600F052FB4320E3E7A8
:1036A000012D04D1384600F04BFB3D20DCE74FF004
:1036B0003F0085F83700384600F042FB0020D3E792
:1036C0002DE9F04706460F4614464FF00008E5483E
:1036D000007830B14FF0110020704FF00000BDE8CD
:1036E000F08700F029FB8046FF2E03D1DB480068FD
:1036F00090F83260DA4850F8265045B9404600F05C
:103700001FFB4FF0430020704FF00000E7E7012D52
:1037100008D1404600F014FB4FF0430020704FF0FA
:103720000000DCE7E86C38603868FEF7D4FC8146BE
:10373000404600F005FB4FF0000020704846CEE701
:103740002DE9F04106460F4614464FF00008C548E3
:10375000007820B14FF012002070BDE8F08100F039
:10376000EBFA8046FF2E03D1BC48006890F8326027
:10377000BB4850F8265035B9404600F0E1FA4FF00A
:1037800043002070E9E7012D06D1404600F0D8FA49
:103790004FF043002070E0E7EF64404600F0D0FABD
:1037A0004FF00000207000BFD7E770B505464FF01E
:1037B000000600F0C1FA0646A94850F8254024B991
:1037C000304600F0BDFA462070BD012C04D13046D1
:1037D00000F0B6FA4320F7E794F8300010F0080F35
:1037E0002FD014F8300F00F0F700207014F83009D3
:1037F00010BBE06AE0B904F13404A0789A49097872
:1038000040EA01009849087020789849085C61787E
:1038100040EA010014F83419944A5054304600F03C
:103820008FFA93480078012809D1FEF73DFA06E0A7
:10383000304600F085FA02E0304600F081FA0020C0
:10384000C2E7304600F07CFA4420BDE72DE9F0479E
:1038500007460D464FF0000A50462860686000F0A9
:103860006BFA8246FF2F03D17C48006890F83270D3
:103870007B4850F827402CB9504600F061FA4320AD
:10388000BDE8F087012C04D1504600F059FA4320DE
:10389000F6E7208A10F0010F04D1504600F050FAEC
:1038A0004520EDE74FF00006D4F80C90D4F80880DE
:1038B000504600F045FA01E006F1010658F8041BF5
:1038C0000029F9D04FEA86002860A9EB06004FEAEC
:1038D000800068604FF00000D2E72DE9F041054616
:1038E0004FF0000800F028FA8046FF2D06D15B4813
:1038F000006890F832504FF001060AE0574800681F
:1039000090F83200A84202D14FF0010601E04FF0DA
:103910000006534850F825402CB9404600F010FAF4
:103920004820BDE8F081012C04D1404600F008FA9F
:103930004320F6E794F834704C48C05D94F8351095
:103940006FEA0101C9B200EA01004849C8550846BA
:10395000C05D50B994F836006FEA0000C0B2424929
:10396000097800EA01004049087094F8300040F0FE
:10397000080084F83000404600F0E2F9012E01D141
:10398000FEF792F90020CCE72DE9F04105460E46FE
:103990004FF0000700F0D0F90746FF2D03D12F4864
:1039A000006890F832502E4850F825402CB938461F
:1039B00000F0C6F92920BDE8F081012C04D1384679
:1039C00000F0BEF94320F6E7542221463046FEF7C8
:1039D00077FB384600F0B4F90020ECE72DE9F0471A
:1039E00004460E4617464FF0000900F0A5F981463F
:1039F000FF2C02D11948056802E0194850F82450FC
:103A000005F1500050F82680484600F099F94FF033
:103A1000000038704046BDE8F0872DE9F0470446C5
:103A20000E46174698464FF0000900F085F981468A
:103A3000FF2C02D10948056802E0094850F82450DB
:103A400005F1500040F82670484600F079F94FF033
:103A5000000088F80000BDE8F08700006402002044
:103A6000800B002051020020550200205602002049
:103A70005E02002010B50448006800F05BF9FF20EA
:103A8000FFF732FD10BD00006402002070B505464E
:103A90004FF000066D48007800B170BD6C480078AA
:103AA00000B1FAE75DB300F047F9064669480068DF
:103AB00090F834406848005D6649096891F835100F
:103AC0006FEA0101C9B200EA0100634908550846DE
:103AD000005D60B95F48006890F836006FEA00004A
:103AE000C0B25E49097800EA01005C490870594893
:103AF0000068C562304600F023F9FEF7D5F800BF34
:103B0000CBE72DE9F04104460D4616461F464F48C7
:103B1000007810B15520BDE8F0814D48007808B11B
:103B20003220F8E707F102004FF0C80100FB01F076
:103B30004FF47A71B0FBF1F14FF4616004FB00F0D7
:103B4000C5EB051200EB8200304400EBC00202EB33
:103B5000001001EBC0084046FFF798FF0020DAE7AD
:103B600070B505464FF000063F2D01D32A2070BDE9
:103B700000F0E2F806463A4850F8254024B93046AD
:103B800000F0DEF84320F2E7012C04D1304600F0CB
:103B9000D7F84320EBE7E06A20B9304600F0D0F8D0
:103BA0005020E4E74FF00000E06294F8300010F09D
:103BB000370F0AD014F8300F20F0370020704FF084
:103BC00001006070A4F1300403E04FF0000084F8BD
:103BD000310094F8300010F0080F18D104F13404CB
:103BE000A0781E49097840EA01001C490870207835
:103BF0001949085C617840EA010014F83419164A42
:103C00005054304600F09CF8FEF74EF802E0304683
:103C100000F096F80020AAE770B54FF0000500F01C
:103C20008BF805460F480468284600F089F82046BE
:103C300070BD70B504464FF0000500F07DF80546F4
:103C400008480460284600F07BF870BD510200204F
:103C5000520200206402002056020020550200207B
:103C6000800B00207C02002070477047704770472F
:103C70007047704770B5044610464FF08075056078
:103C8000A0F1040528462C606FF00106A0F10405A0
:103C900028462E604FF01236A0F1040528462E600B
:103CA0004FF00336A0F1040528462E604FF002368F
:103CB000A0F1040528462E604FF00136A0F104055E
:103CC00028462E60A0F10405284629604FF01136E1
:103CD000A0F1040528462E604FF01036A0F104052F
:103CE00028462E604FF00936A0F1040528462E60C4
:103CF0004FF00836A0F1040528462E604FF0073635
:103D0000A0F1040528462E604FF00636A0F1040508
:103D100028462E604FF00536A0F1040528462E6097
:103D20004FF00436A0F1040528462E6070BD7047A0
:103D30007047704770470000EFF3108072B670470D
:103D400080F310887047204C204D25604FF0000410
:103D500084F309881E4C4FF0010525701D4C4FF06F
:103D60008055256062B6FEE730B41A4C4FF080559E
:103D7000256030BC704730B4164C4FF0805525603C
:103D800030BC704700BF72B6EFF3098028B120380D
:103D900080E8F00F10490968086000B50F488047B7
:103DA0005DF804EB0E480F490A7802700A480E4984
:103DB0000A680260106890E8F00F203080F30988EC
:103DC0004EF0040E62B6704720ED00E00000FFFFE9
:103DD0005E02002004ED00E0640200202F3D000898
:103DE00053020020540200206C02002070470000A3
:103DF0000FB4044910B503AA029800F09FFA10BC52
:103E00005DF814FB200200202DE9F0474FF0000A76
:103E100004468946C0F820A02046E168884700286B
:103E200076D0252806D0D4E901219047206A401C8D
:103E30002062F1E7E168204600258847C4F81CA00D
:103E400006460027C4F818A02A2E09D0304600F0F4
:103E5000E2FF38B304EB8708303EC8F8186019E079
:103E600059F8041B204604EB87029161E1688847FA
:103E7000012F064618D1E069002820DA25F0200538
:103E80001DE0D8F8180000EB800006EB4000303849
:103E9000C8F818002046E1688847064600F0BBFFD6
:103EA0000028EED1012F0AD02E2E08D12046E1683D
:103EB00088477F1C0646022F45F02005C4DBA06919
:103EC000002803DA404245F00105A061E80701D06F
:103ED00025F01005B6B1A6F14100192802D8203608
:103EE00045F400654A463146204625604D46FCF7BC
:103EF00079F958B1012806D0ED1D25F0070000F131
:103F0000080989E704E005F1040985E730468AE7F6
:103F1000206ABDE8F0877047704770477047704768
:103F20002DE9FF4F0C461E464FF0FF378BB0D2E90C
:103F30000001DDF860800A908A46C1F30A5505B990
:103F40003D46002108464FF00000BAF1000F00F492
:103F5000400005DA00EB80004FF4400101EA500018
:103F60004FEA9059B9F1010F00DDB9460A9850EABD
:103F70004A000ED044F61050A5F2FF3545432F14E9
:103F8000B8F1000F1ED07542291E1EDDC9F10002D6
:103F90001CE0B8F1010F4FF0000001D1F24307E03F
:103FA000302101E02154401CB042FBDB30460022AE
:103FB000002121540B99C1F80880C1E900200FB0FD
:103FC000BDE8F08FBD1B6D1CDEE74A4600DA694292
:103FD00006A800F067FA06AB07CB03AB07C3504651
:103FE0000A9900F049FB8DE80700A0F500501F3842
:103FF00000900398002D09DD42F21F014A46084453
:1040000003A90390684600F0A8FD08E0A0F5005061
:104010004A461F3803A90390684600F0B2FD8DE8B8
:1040200007000004000C03D04FF0FF30410800E00F
:104030001046B8F1000F03D00022009215461FE091
:10404000751E06D400F090F902F1300262556D1E23
:10405000F8D5B3460122084302D000227F1C04E0B9
:104060002078302801D100227F1E002A099787D0AE
:104070001DE0112D07DA00F077F9303262556D1C22
:1040800050EA0102F5D108430FD10021681E05E076
:10409000235C625C6354491C2254401E8142F7DB5E
:1040A000AB46A81B401E099001E0009848B10020D3
:1040B00004F80B000B98099AC0F80880C0E9002B9F
:1040C0007DE711264FF000085AE72DE9F04F8846AA
:1040D0000446D21D22F0070191B0D1E90001CDE9DB
:1040E0000A0100F084FE02460B98C00F01D02D207B
:1040F00007E02068810701D52B2002E0202101EA9A
:10410000C000032A099001D0072A05DB0346414677
:10411000204600F087F90EE12068800601D5E069AD
:1041200000E00620B8F1650F814606D0B8F1660FB1
:1041300018D0B8F1670F72D132E00020B9F1110F39
:104140000090484601DB112300E0431C0AAA01A9A4
:104150000CA8FFF7E5FEDDE90C70002609F101056A
:10416000834648E001204B4600904FF000470AAAE2
:1041700001A90CA8FFF7D4FEDDE90C050E99002675
:10418000AB4619B909F1010100EB0105B9EB0500D6
:1041900003D4C0F1FF3609F10105A5EB09002BE0BE
:1041A000B9F1010F01DA4FF001090020B9F1110F47
:1041B0000090484601DD112300E003460AAA01A948
:1041C0000CA8FFF7ADFEDDE90C704D4600268346D6
:1041D000206800070AD4AB4500DA5D4601A8012D2E
:1041E00004DD411911F8011C302907D04F4502DACE
:1041F00017F1040F04DA0120824610E06D1EEEE78D
:10420000002F02DCED1B3E4403E0781CA84200DDD9
:104210000546A7EB060000F1010A4FF000472068B1
:10422000000703D4AA4501DB4FF0FF3A0021B7F1A4
:10423000004F0DF143088DF8431022D002202B23AC
:10424000002F01DA7F422D230A22011EA0F1010076
:1042500000DC4FB197FBF2F102FB117C0F460CF131
:10426000300C08F801CDF0E7A8F1010003702168D7
:10427000090501D5452100E06521A0F1010800F8FC
:10428000011C09980FA9A1EB080707F1070700B166
:10429000012000EB050101EBEA70A1693844A1EBB4
:1042A0000000A0F10100A0612068C00602D42046F1
:1042B000AFF30080099830B1D4E901219047206A1A
:1042C00000F1010020622068C00620D52046AFF32F
:1042D00000801CE0002E04DBB34502DD01A8805DF8
:1042E00000E03020D4E901219047206A761C401C70
:1042F000BAF1010A20620AD100F032F8C068016800
:10430000405CD4E901219047206A401C2062281EAD
:10431000A5F10105DEDC07E0D4E9012118F8010B65
:104320009047206A401C2062381EA7F10107F3DC89
:104330002046AFF30080022011B041E6074B70B574
:104340000C467B4400F05BF80546204600F01CF963
:1043500010B14FF0FF3070BD284670BDC1C6FFFFE1
:10436000004870470811002030B5B0F10A024FEA4A
:10437000900E71F100034EEA817EB0EB0E0061EB0E
:1043800091014FEA101E4EEA017E10EB0E0041EB48
:1043900011114FEA102E4EEA016E10EB0E0041EBA8
:1043A00011214FEA104E4EEA014E10EB0E0041EB88
:1043B0001141401841F100014FEAD00040EA41703C
:1043C0004FEAD10110EB80054FEA810444EA907472
:1043D00044EB01046D1944EB0404521BA3414FF05C
:1043E000000348BF0A3200D530BD401C41F1000136
:1043F00030BD000001694A1C02610878704700B5B1
:104400008FB0CDE901310021059105497944CDE90D
:10441000031011466846FFF7F7FC0FB000BD00001F
:10442000E5FFFFFF2DE9F04104461F460326016822
:10443000072A01F4006004DB08B116A505E016A503
:1044400003E008B115A500E015A521F010002060DB
:10445000A069C01EA0610FB1401EA0612046AFF34D
:1044600000804FB1D4E9012138469047206A401CB2
:104470002062C01C206206E0206AFAE7D4E901212C
:1044800015F8010B9047761EF8D22046AFF3008056
:10449000BDE8F0814E414E006E616E00494E46000F
:1044A000696E66002DE9F047814616468AB03548A8
:1044B0007844D0E9002380680092CDE9013031488A
:1044C00078440C38D0E90223006903924FF0370298
:1044D000CDE9043041F69B30014491FBF2F0A0F1AC
:1044E000800502FB10141B3C02D56442012000E051
:1044F0000020DFF890A080460027FA44AAF1C60AFF
:104500000DE0E00709D03246684607EB47010AEBA9
:10451000810100F036FB8DE8070064107F1C002C41
:10452000EFD1184F7F44B43F17E0E80713D007EBF3
:1045300004100DF1180A90E80E00AAE80E00C068F9
:10454000F04201D198190890324606A903A800F05C
:1045500018FB03AB07C36D10641C002DE5D1324678
:104560006946B8F1000F03A802D000F0F6FA01E0A6
:1045700000F007FBC9E90001C9F808200AB0BDE84E
:10458000F0870000D80D0000C06800F08000704780
:1045900000487047E81000207546FFF7F9FFAE4667
:1045A00005006946534620F00700854618B020B53F
:1045B000FCF7E8FABDE820404FF000064FF0000796
:1045C0004FF000084FF0000B21F00701AC46ACE8BB
:1045D000C009ACE8C009ACE8C009ACE8C0098D4628
:1045E00070470446AFF300802046FBF717FE00003B
:1045F0004FF0013C50F8042B51F8043B9A4221D172
:10460000A2EB0C03934313EACC1317D150F8042BFD
:1046100051F8043B9A4215D1A2EB0C03934313EAE1
:10462000CC130BD150F8042B51F8043B9A4209D11A
:10463000A2EB0C03934313EACC13DBD04FF0000042
:10464000704700BFD01A01BAB1FA81F101F0180128
:1046500022FA01F0CB40C1F12001DBB2C0B2C01A96
:104660002CFA01F3D11A914311EAC311E6D1704734
:1046700000487047EC1000205FEA400C08BF91F042
:10468000000F4FEA8C234FEAC12243EA51514FEA0F
:104690001C5018BF00F5F0404FEA300018BF41F041
:1046A00000415FEA6C5C00F02980BCF1FF3F08BF6D
:1046B00040F080407047130C06BF12044FF0100CFE
:1046C0004FF0000C130E04BF12020CF1080C130F74
:1046D00004BF12010CF1040C930F04BF92000CF103
:1046E000020CD30F04BF52000CF1010C11464FF025
:1046F0000002A0F11F00A0EB0C00704711F0004F6A
:1047000008BF704731F000413FF4D5AF0B0C06BF36
:1047100009044FF0100C4FF0000C0B0E04BF0902FF
:104720000CF1080C0B0F04BF09010CF1040C8B0FEA
:1047300004BF89000CF1020CCB0F04BF49000CF13F
:10474000010CCCF12003A0EB0C0022FA03F302FAD7
:104750000CF241EA030100F10100704720F07F4CA8
:1047600080EA030023F07F47ACEB070303F57C539B
:1047700000F0004003F1FF032DE980494FEA154B9B
:1047800009B44FEA144325EA0B4E24EA03480FF21A
:10479000042606EB132749083E785FEA320203FB42
:1047A0000667C7F5000707FB06F64FEA54374FEADE
:1047B000D64606F1020607FB066CCCF1005C4FEA18
:1047C0001C472CEA074C07FB06F40CFB06F504EB30
:1047D00015464FEA961634BF00204FF000404FEACE
:1047E000D13706FB07FC4FEA1C4C0CFB0BF7D21B26
:1047F00003FB0CF761EB07010CFB0EF7B0EB074076
:1048000072EB17420CFB08F734BFA2EB0742B2EB86
:10481000074261EB17414FEA0C444FEA910706FB50
:1048200007FC4FEA1C4C0CFB0BF7B0EBC74072EBDC
:10483000573203FB0CF734BFA2EBC742B2EBC742BF
:1048400061EB57310CFB0EF7B0EBC70072EB577200
:104850000CFB08F734BFA2EBC702B2EBC70261EB57
:104860005771039F4FEA816141EA921104EBCC0436
:104870004FEAD1374FEA826206FB07FC42EA901208
:104880004FEA80604FEA1C4C0CFB0BF7D21B03FB7A
:104890000CF761EB07010CFB0EF7B0EB074072EB76
:1048A00017420CFB08F734BFA2EB0742B2EB0742FA
:1048B00061EB17414FEA8C554FEA910704EB9C24BA
:1048C00006FB07FC4FEA1C4C0CFB0BF7B0EBC74098
:1048D00072EB573203FB0CF734BFA2EBC742B2EBCB
:1048E000C74261EB57310CFB0EF7B0EBC70072EB20
:1048F00057720CFB08F734BFA2EBC702B2EBC7023A
:1049000061EB577115EB4C254FEA816141EA921139
:104910004FEA82624FEAD13742EA901206FB07FC67
:1049200044F100044FEA80604FEA1C4C0CFB0BF78B
:10493000D21B03FB0CF761EB07010CFB0EF7B0EB8E
:10494000074072EB17420CFB08F734BFA2EB07429B
:10495000B2EB074261EB174115EB1C154FEA8131B1
:1049600041EA92414FEA823242EA90424FEA803075
:104970004FEA0C7644F1000448EA03434EEA0B4840
:104980004FF0000EB2EB080C71EB030724BF624638
:1049900039464EEB0E0E4FF0000B001852414941C4
:1049A0004BEB0B0BB2EB080C71EB03077BF1000B2D
:1049B00024BF624639464EEB0E0E4FF0000B001836
:1049C000524149414BEB0B0BB2EB080C71EB030767
:1049D0007BF1000B24BF624639464EEB0E0E51EAC6
:1049E000020718BF46F0010616EB0E7655F10002DD
:1049F00054F1000103D5BDE88901BDE80088BDE898
:104A00008901BDE80048B619524141EB0101A3F10B
:104A10000103704780807F7E7D7C7B7A7978777612
:104A200076757473727171706F6E6E6D6C6C6B6A8B
:104A30006A69686867666665646463636261616029
:104A4000605F5F5E5E5D5D5C5C5B5B5A5A595958A6
:104A50005857575656555555545453535252525110
:104A6000515050504F4F4F4E4E4D4D4D4C4C4C4B66
:104A70004B4B4A4A4A4949494848484747474746AD
:104A800046464545454444444443434343424242E9
:104A900042414141002B26D4770021D01CB54FEA7A
:104AA000370703B44FF010004FF010014FF0000033
:104AB0000FBCBDE810400BF1010BBBF1010F08BFAB
:104AC0005FEA170722BF12F1010211F101014FF055
:104AD000004143F1000300F0004043EA000070474A
:104AE000F9D35708DAE746EA064613F1400F4FEAD2
:104AF00016461FDD13F1200FDFBF16430A460021C3
:104B000020335B42C8D0C3F1200746EA064602FACA
:104B100007F74FEA164646EA0706C3F1200722FACE
:104B200003F201FA07F721FA03F14FF0000342EA1A
:104B30000702B1E746EA020646EA06464FEA16468B
:104B400046EA0106BCBF46EA0646360C4FF00003B3
:104B50004FF000024FF000019EE72DE9C048934658
:104B600030B491E8380007C831EA400C48BF34EA55
:104B7000430C03D5FFF7F2FDFFF78CFFF0BCBDE857
:104B800000882DE9C048934630B491E8380007C842
:104B900010F0804F08BF13F0804F03D100F005F8EC
:104BA000FFF778FFF0BCBDE8008820F07F4780EA7F
:104BB000030023F07F4C07EB0C03A3F57C5300F0BC
:104BC0000040A3F1FE0392F0000F00F0B38095F0D7
:104BD000000F00F077802DE901494FEA11404FEABC
:104BE000144621EA004800FB06FC24EA064708FBBD
:104BF00006F607FB08F800FB07F718EB06484CEB36
:104C0000164C4FEA124B18EB07484FEA15464CEB8F
:104C1000174022EA0B4E0BFB06FC25EA06470EFB6B
:104C200006F607FB0EFE0BFB07F71EEB064E4CEBE2
:104C3000164C4FF000061EEB074E4CEB174B18EBD3
:104C40000B0840F1000018EB0E0B58EB000840F188
:104C500000008F1A4FF000013CBFC943661B14BF10
:104C6000B5EB040C00213CBFC943F61B4FEA1744C7
:104C70004EEA8E0E27EA04454FEA1C4704FB076202
:104C80002CEA074C05FB07F70CFB05F604FB0CFCB4
:104C900016EB074642EB174216EB0C4642EB1C4262
:104CA0001BEB060658EB0202414146EA9E0601D57F
:104CB000BDE80189B619524141EB0101A3F101039D
:104CC000BDE801894FEA14454FEA114724EA054639
:104CD00021EA074C05FB07F406FB07F70CFB06F17E
:104CE00005FB0CFC11EB074144EB17444FEA12475C
:104CF00011EB0C4144EB1C4422EA074C05FB07F284
:104D000006FB07F70CFB06F605FB0CFC16EB07464B
:104D100042EB174216EB0C4642EB1C456A1854F165
:104D2000000148BF7047B619524141EB0101A3F1A0
:104D30000103704795F0000F37D04FEA11424FEA58
:104D4000144721EA024624EA074C02FB07F106FB5E
:104D500007F70CFB06F402FB0CFC14EB074441EBD9
:104D600017414FEA154714EB0C4441EB1C4125EA6F
:104D7000074C02FB07F506FB07F70CFB06F602FBE8
:104D80000CFC16EB074645EB174516EB0C4645EBBE
:104D90001C42121951F1000148BF7047B619524127
:104DA00041EB0101A3F1010370474FEA14454FEABB
:104DB000114724EA054621EA074C05FB07F106FBEB
:104DC00007F70CFB06F24FF0000605FB0CFC12EB9C
:104DD000074241EB174112EB0C4251EB1C4148BF1B
:104DE0007047921841EB0101A3F10103704749009C
:104DF00050EAC12018BF04204A0D18BF40F001003E
:104E000040F2FF72B2EB515F08BF40F00200012890
:104E100008BF0520704730380A2801D201207047AA
:104E20000020704710B500290AD00878002807D064
:104E300005487844FFF7DCFB002801D0002010BDB6
:104E40000248784410BD0000920400008A0400006B
:104E50000808A0F500114FEA3101704743004FEAFE
:104E6000D30C4FEA3C0C43401FBF40070CF160518C
:104E700013F0FE4F70471CF0006F03D100200CF0C0
:104E8000004170470CF0004343EA507010B540EA0F
:104E9000CC0000F0E9F800BF000000924FEA0001EA
:104EA000FFF7D6BF4FF000414FF00000A1F5002101
:104EB000704700004FF47F0C1CEAD0121EBF1CEAA2
:104EC000D11392EA0C0F93EA0C0F00F0858090EA60
:104ED000010F48BF42F4807240F4000C41F400001E
:104EE0002CF07F4120F07F4000B58142A2EB03020D
:104EF0000FF2081CACEB504EC0F100009EF800E031
:104F00004FEA4E0E00FB0EFC38BF49004FEA2C1C46
:104F100002F5FA020CFB0EF34FEACE1E4FEA112CFB
:104F20004FEAC1210EEB635E42EB22420EFB0CFC0A
:104F30004FEA1C5300FB03114FEA112C4FEA0131D9
:104F40000EFB0CFC4FEADC4C00FB0C11C14228BFED
:104F500009184CEB03335DF804EB10EB410143EB14
:104F6000C250B2F57C0F38BF704729D512F0F00F50
:104F70001CBF00F1C04000F00040704700818283F8
:104F80008485868788898B8C8D8E8F919293959658
:104F900097999A9C9D9FA0A2A3A5A7A8AAACAEB0E2
:104FA000B2B3B5B7B9BCBEC0C2C5C7C9CCCED1D4E7
:104FB000D7D9DCDFE2E6E9ECF0F3F7FAFE00000017
:104FC0004FEA400C0CF1807CBCF17E4F28BF70474B
:104FD000B0F1C04000F095B890EA010F0CEAD1138F
:104FE00048BF42F48072624538BF634507D213F46C
:104FF0007F0F16D080EA010000F00040704710B526
:1050000000F032F8097EFC3E00F005B880EA0100AD
:1050100000F00040704780EA010000F0004000F01E
:1050200070B812F47F0F04BF0248704780EA010095
:1050300000F067B80000C07F10F0004148BF404258
:10504000B0FA80F310FA03F2C3F19D030BD051EADA
:10505000C35101EB1220530638BF704700F1010025
:1050600008BF20F0010070470EF1020E2EF0030E73
:105070005EF8044B244204D44FEA4102B2F17F4F60
:1050800011D84FEA4003B3F17F4F0CD80ED14FEA4D
:10509000D07CB2F17F4F0CEB4C0C0CF1020C08BF32
:1050A0004CEBD17C04E04FF0080C01E04FEAD17CDE
:1050B0000CEB4C0324FA03F404F00704B4F1040CE1
:1050C00006D20EEB840CBDE810404CF0010C60479A
:1050D000DFE80CF0070802024FF00040A0F5800066
:1050E00010BD0846420018BFD2F1807288BF00F0A0
:1050F000004010BD10B5FFF7BBFA4FF00001016092
:1051000010BDFF2141EAD050C0057047FEF7DDBF5A
:105110000000010002000100030001000200010084
:105120000400010002000100030001000200010070
:10513000050001000200010003000100020001005F
:105140000400010002000100030001000200010050
:10515000060001000200010003000100020001003E
:105160000400010002000100030001000200010030
:10517000050001000200010003000100020001001F
:105180000400010002000100030001000200010010
:1051900007000100020001000300010002000100FD
:1051A00004000100020001000300010002000100F0
:1051B00005000100020001000300010002000100DF
:1051C00004000100020001000300010002000100D0
:1051D00006000100020001000300010002000100BE
:1051E00004000100020001000300010002000100B0
:1051F000050001000200010003000100020001009F
:10520000040001000200010003000100020001008F
:1052100002400000000000A0000000000540000067
:10522000000000C8000000000C4000000000409C8E
:1052300000000000194000000020BCBE000000007B
:1052400034400000BFC91B8E00000004B5400000C0
:10525000504BCFD06607E2CF010000006C41000048
:105260003E8251AADFEEA73401000000D9420000BF
:10527000DCB5A0E23A301F97FFFFFFFFB445000006
:10528000FD25A0C8E9A3C14FFFFFFFFFFF3F0000BE
:105290000000008000000000FF3F000000000080D0
:1052A00000000000E0520008000000208002000022
:1052B0006C0100082854000880020020C818000073
:1052C000C80100081C00000043000000F8FFFFFFB9
:1052D0000C0000000E0000000F0000002E00000077
:1052E0001184A24A04500901020304060708092890
:1052F00008C1814001C0804104690C2908E918A94E
:105300001C091A30091638093660092E70092F60F9
:1053100000FF00C0C101C30302C2C60607C705C51E
:10532000C404CC0C0DCD0FCFCE0E0ACACB0BC909CD
:1053300008C8D81819D91BDBDA1A1EDEDF1FDD1DDD
:105340001CDC14D4D515D71716D6D21213D311D10D
:10535000D010F03031F133F3F23236F6F737F5355D
:1053600034F43CFCFD3DFF3F3EFEFA3A3BFB39F98D
:10537000F83828E8E929EB2B2AEAEE2E2FEF2DED5D
:10538000EC2CE42425E527E7E62622E2E323E121CD
:1053900020E0A06061A163A3A26266A6A767A565DD
:1053A00064A46CACAD6DAF6F6EAEAA6A6BAB69A94D
:1053B000A86878B8B979BB7B7ABABE7E7FBF7DBD5D
:1053C000BC7CB47475B577B7B67672B2B373B1718D
:1053D00070B050909151935352929656579755955D
:1053E00094549C5C5D9D5F9F9E5E5A9A9B5B99590D
:1053F0005898884849894B8B8A4A4E8E8F4F8D4DDD
:105400004C8C44848545874746868242438341814C
:10541000800210402D010203040400094806070819
:08542000090204060800000067
:0400000508000131BD
:00000001FF
